:100000000C948E040C94B6040C94B6040C9448061C
:100010000C9448060C9448060C94B6040C94B60450
:100020000C94B6040C94B6040C94B6040C94B60468
:100030000C94B6040C94B6040C94B6040C94B60458
:100040000C94CC0D0C94B6040C94CC0F0C94FE0FB5
:100050000C94B6040C94B6040C94B6040C94B60438
:100060000C94B6040C94B6042309630933092D09D2
:1000700047094B095609000000000000000000007D
:100080000000000000000000000000000000000070
:100090000000000000000000000000000000300030
:1000A000000000000000000000FFF000007F1000D2
:1000B00000000000000000000FFFFFC00030100033
:1000C00000000000800000007C0000F800301000FC
:1000D0000400000000000001E000001C00301000DF
:1000E000080000000000000F00000007003010C1F1
:1000F000CE28E170831C001C00000001803F1132FB
:10010000487911988DA400700000000060301376CB
:1001100008631908902000C000FFF8003030120476
:1001200008620908901C01800FFFFF001830930639
:1001300008630908900C02007C0001E01830931657
:100140002C61110888A60001E0000078007FB9E367
:10015000C771B39DCF3C000F0000000E00000000EF
:10016000000000000000001C003FE007000000004D
:10017000000000000000003003F07E01800000005D
:1001800000000000000000600F800700C0000000B9
:100190000000000000000000380000C06000000007
:1001A000000000000000000070000070100000005F
:1001B0000018018000000001C00F001800000000BE
:1001C0001F9800800000000300FFF80800000000F6
:1001D000619800800000000407C01F0000000000BC
:1001E000C0980080000000000C0001C0000000006A
:1001F00080180080000000003800000000000001AE
:10020000801888F000000000003E0000000000019F
:100210008019888C00000000007FC00000000001F1
:100220008019888C00000000018038000000000068
:10023000801988840000000000000E00000000000B
:10024000C099888400000000000000000000000049
:100250006099888C00000000007F00000000000012
:100260003F9CFCF80000000003C3F0000000000009
:1002700000000000000000000F003F8000000000B0
:100280000000000000000000780003FF8000000074
:100290000000000000000001E000001FF00000006E
:1002A000000000000000000F00000000FC00000043
:1002B000000000000000007C003F80000C000000F7
:1002C00000000003000001E000FFE0000600000065
:1002D000080000C48004070003FFF800060C0000BB
:1002E000080000CDC00406000FFFE0000C1C0080D9
:1002F000C80000488004060003FF00007818008151
:10030000C80040080004030001FC0003E030008145
:1003100088004008800401E000F0001F00300081E8
:1003200008804068880400780000007C3E30188116
:1003300009C04E789C24040F000001E003203DC159
:1003400029406FCC94F41803C0000780012027C116
:10035000EA4EEFCDA48C2000F0001E07C1202781BB
:10036000CA57C9C9A50C60303C00380061277881A4
:100370000BD048C9BD0C61800700E0202131E0812D
:100380000A1048C9A10C210003C180782011A08166
:100390000A104889A10C210C00E30006201B2081D3
:1003A0000A104889210C111000760002200F2C81C0
:1003B000EA7A488927AC0110381C07C2400E3C80FD
:1003C00009CE48891CFC019080000062000000C03A
:1003D0000000200800200098800018220000000083
:1003E000000000000000000881C060200000000044
:1003F000000000000000000880E040200000000035
:100400000000000000000000807980400000000033
:100410000000000000000000C01F000000000000FD
:1004200000000000000000000000000000000000CC
:1004300000000000000000000000000000000000BC
:1004400000000000000000000000000000000000AC
:10045000000000000000000000000000000000009C
:10046000000000000000000000000000000000008C
:10047000000000000000000000000000000000007C
:10048000000000000000000000000000000000006C
:10049000000000000000000000000000000000005C
:1004A000000000000000000000000000000000004C
:1004B000000000000000000000000000000000003C
:1004C000000000000000000000000000000000002C
:1004D000000000000000000000000000000000001C
:1004E000000000000000000000000000000000000C
:1004F00000000000000000000000000000000000FC
:1005000000000000000000000000000000000000EB
:1005100000000000000000000000000000000000DB
:1005200000000000000000000000000000000000CB
:1005300000000000000000000000000000000000BB
:1005400000000000000000000000000000000000AB
:10055000000000000000000000000000000000009B
:10056000000000000000000000000000000000008B
:10057000000000000000000000000000000000007B
:10058000000000000000000000000000000000006B
:10059000000000000000000000000000000000005B
:1005A000000000000000000000000000000000004B
:1005B000000000000000000000000000000000003B
:1005C000000000000000000000000000000000002B
:1005D000000000000000000000000000000000001B
:1005E00000000000000000001FFFFFFFFFFFFFFFF3
:1005F000FFFFFFFE000000003FFFFFFFFFFFFFFFC8
:10060000FFFFFFFF800000007FFFFFFFFFFFFFFFF6
:10061000FFFFFFFFC00000007FFFFFFFFFFFFFFFA6
:10062000FFFFFFFFE00000007FFFFFFFFFFFFF7FF6
:10063000FFFFC07FE00000007FF0001FE000FF7FB1
:10064000807FC03FE00000003FF0001FE000FE3F61
:10065000803FC07FC00000003FF8001FE001FE3F68
:10066000C03FFFFF800000001FFC001FE001FC3FB7
:10067000C03FFFFE000000000FFE001FE003FC1F54
:10068000C03FFFFF0000000003FF001FE003F81F52
:10069000E03FFFFFC000000001FF801FE007F81FE0
:1006A000E03FC07FE000000001FF801FE007FFFF88
:1006B000F03FC01FF00000FFFFFFC01FE007FFFF7B
:1006C000F03FC01FF00000FFFFFFC01FE00FFFFF63
:1006D000F83FC03FF00000FFFFFFC01FE00FF00F2A
:1006E000F83FFFFFE00000FFFFFF801FE01FF00F5B
:1006F000FC3FFFFFC00000FFFFFF001FE01FE007FF
:10070000FC3FFFFF800000FFFFF8000FE01FE00349
:10071000FC3FFFF0000000000000000000000000AF
:1007200000000000000000000000000000000000C9
:1007300000000000000000000000000000000000B9
:1007400000000000000001400004070000400840D5
:1007500050A80180200003C020042200C00008C06F
:10076000C020014020000254EEED82EEE75DE8CEAD
:10077000EAABB1DDFA0001552E8185F8896311E8F5
:10078000AEAFB3664C00075D6AAB85EEA9BD512ED6
:10079000A4CFF3FD4800020084010404001000040B
:1007A000A000211008000000000000000000000070
:1007B0000000000010000000000000000000000029
:1007C0000000000000000000000000000000000029
:1007D0000000000000000000000000000000000019
:1007E0000000000000000000000000000000000009
:1007F00000000000000000000000000000000000F9
:1008000000000000000000000000000000000000E8
:1008100000000000000000000000000000000000D8
:1008200000000000000000000000000000000000C8
:1008300000000000000000000000000000000000B8
:1008400000000000000000000000000000000000A8
:100850000000000000000000000000000000000098
:100860000000000000000000000000000000000088
:10087000000000000000FFE0FFD1AFFF32FFD0FF1B
:10088000FEFFE0FFD1AEFFD0FFFEFFE0FFD1100082
:10089000FFFEFFD0FFE0FFC1FFD1AED580A83FD360
:1008A00000408D142000A1C8DA1281CFD9F1DB40BD
:1008B0002EA4A6AFFFD0FFFE00000008000201003A
:1008C000000304070000000000000000010204080B
:1008D00010204080010204081020010204081020AA
:1008E00004040404040404040202020202020303D6
:1008F000030303030000000023002600290000007A
:100900000000250028002B00000000002400270024
:100910002A002E0573052E1062057A0511241FBECC
:10092000CFEFD8E0DEBFCDBF11E0A0E0B1E0E0E462
:10093000F7E202C005900D92AC34B107D9F723E07D
:10094000ACE4B1E001C01D92AB33B207E1F719E0AE
:10095000C8E1D9E004C02297FE010E945711C231BC
:10096000D107C9F70E9472100C9493130C940000E5
:10097000CF93DF93EC01262F4CAD6BAD04960E9414
:10098000260B2BAD992787FD9095820F911D8BAF7C
:1009900081E090E0DF91CF91089584E591E00E949D
:1009A000A9108EE491E00E94A91081E691E00E94D6
:1009B000A9108BE591E00C94A910EF92FF920F9390
:1009C00080914C0190914D0162E070E00E944111D4
:1009D000009739F0019789F486E7E82E84E0F82E35
:1009E00004C096E7E92E90E0F92E00E420E140E013
:1009F00060E08CE691E00E9489070F91FF90EF90F4
:100A0000089581E08093A5018CE691E00E94440C5A
:100A100061E08CE691E00C94A50C8091A501811118
:100A200007C081E08093A5018CE691E00E94440C10
:100A30008CE691E00E94800C0E94DD048CE691E03F
:100A40000E94850C8111F8CF80914C0190914D014D
:100A5000019690934D0180934C010895CF92EF92AF
:100A60000F93CF93DF9310926B0110926A01C8E647
:100A7000D1E088E191E09983888326E0C22E38E0B6
:100A8000E32E0FEF21E140E166E071E0CE010E942C
:100A90004B0780E291E0998388838BE591E00E9487
:100AA00064056BE271E08EE491E00E9417116BE245
:100AB00071E084E591E0DF91CF910F91EF90CF90BD
:100AC0000C9417110C94CD04CF93DF93EC016BE2DF
:100AD00071E00E9417116BE271E0CE010696DF9182
:100AE000CF910C94171120E04AE065E086EA91E08E
:100AF0000C941B0786EA91E00C94C2062091070231
:100B00003091080228173907B9F49091C5018091F6
:100B1000C601981789F0E091C501F0E0E953FE4F56
:100B200080812091C50130E02F5F3F4F2F73332725
:100B30002093C50190E008958FEF9FEF08951F93D4
:100B4000CF93DF93DC015C968D919C915D9700972C
:100B500049F481E090E013969C938E93129780E085
:100B600090E03BC05196ED91FC91529750962C919C
:100B70005097322F30951FB75E964C915E9741FB90
:100B8000772770F941FD6095F8944081772311F043
:100B9000422B01C043234083EC012197F1F748E049
:100BA000508160FF02C0522B01C053235083EC01DF
:100BB0002197F1F76695415099F78081772311F0DD
:100BC000832301C0822B80831FBF5C968D919C91F3
:100BD0005D970197F1F781E090E0DF91CF911F9150
:100BE000089520910702309108022817390781F4EF
:100BF0009091C5018091C601981751F0E091C5010F
:100C0000F0E0E953FE4F8081992787FD9095089584
:100C10008FEF9FEF08952091070230910802281767
:100C2000390771F48091C6012091C50190E0805C84
:100C30009F4F821B910960E470E00E94411108956A
:100C400080E090E008952091070230910802281773
:100C5000390739F48FB7F8941092C6011092C50184
:100C60008FBF0895E0910702F0910802E817F90795
:100C700069F4A389B4899C918589809589238C9393
:100C8000109208021092070281E0089580E0089512
:100C90001F920F920FB60F9211242F933F934F93F1
:100CA0005F936F937F938F939F93AF93BF93EF93D4
:100CB000FF93E0910702F0910802309709F451C0C8
:100CC000868DA685B785958581FF04C08C91892383
:100CD00029F447C08C91892309F043C0A389B489C2
:100CE0009C918589809589238C9386899789019722
:100CF000F1F7208D318DA685B785758558E040E0E8
:100D0000C9010197F1F7842F90E095958795482FB9
:100D10006C91672309F04068515091F7868D81FDF1
:100D200040958091C60190E001968F73992720919C
:100D3000C501281749F0A091C601B0E0A953BE4FE4
:100D40004C938093C60103C0868D8160868F828D0F
:100D5000938D0197F1F7A389B4898C919589892B9B
:100D60008C93FF91EF91BF91AF919F918F917F9164
:100D70006F915F914F913F912F910F900FBE0F9008
:100D80001F90189520E331E0FC01318320830C94FF
:100D900032061F93CF93DF93EC01162F6E8D66956D
:100DA000617081E06827812F0E94B30E61E0812F7E
:100DB0000E947A0E812F90E0FC01E453F74FE491FA
:100DC000E88BFC01E052F74FE491F0E0EE0FFF1FDB
:100DD000E250F74F859194919A8B898BDF91CF9157
:100DE0001F9108951F93CF93DF93EC01162F60E0BE
:100DF000812F0E947A0E8E8D81FD04C061E0812FCB
:100E00000E94B30E1C87812F90E0FC01E453F74F42
:100E1000E491ED87FC01E052F74FE491F0E0EE0F32
:100E2000FF1FEC50F74F859194919F878E87DF913C
:100E3000CF911F910895FF920F931F93CF93DF934C
:100E4000EC01F62E522F1B821A8208EE13E020E0EE
:100E500030E00C831D832E833F8380E391E09983F0
:100E600088831F8A1E8A198E188E1B8E1A8E1D8EDD
:100E70001C8E8E8D8E7F50FB81F98E8F642FCE015C
:100E80000E94C9066F2DCE01DF91CF911F910F9166
:100E9000FF900C94F206CF92EF920F93FC0113AEE9
:100EA00014AE15AE04960E94560C0F91EF90CF90A1
:100EB0000895AF92BF92CF92DF92EF92FF920F937D
:100EC0001F93CF93DF931F92CDB7DEB77C01362FF0
:100ED000C42ED22E5801DD2081F0F501049120E0CE
:100EE0004C2D632FC70139830E94940CFFEFAF1A7A
:100EF000BF0ADA943981385FEECF0F90DF91CF913E
:100F00001F910F91FF90EF90DF90CF90BF90AF9027
:100F100008958F929F92AF92BF92CF92DF92EF92FD
:100F2000FF920F931F93CF93DF93EC01962EB42E75
:100F3000A22ED02E220F220F220F0E94BF0788233D
:100F400089F08B2C8D0CCA2CD12CB81459F0870148
:100F50002A2D4B2D692DCE010E945907EC0CFD1C4A
:100F6000B394F3CFDF91CF911F910F91FF90EF904A
:100F7000DF90CF90BF90AF909F908F9008950F9388
:100F8000FC010150040F84A996A9941718F00817C2
:100F900028F402C0081750F0041740F42150260F1F
:100FA00083A995A9961720F4281720F480E007C09C
:100FB000281720F481E0261710F0F8CF81E00F9178
:100FC0000895DB011496ED91FC91159720E030E037
:100FD00061E00994DB011496ED91FC91159720E0F6
:100FE00030E063E00994DB011496ED91FC911597D4
:100FF00020E030E040E064E00994DB011496ED91DC
:10100000FC91159720E030E041E064E00994DB01B9
:101010001496ED91FC91159720E030E062E0099480
:10102000DB011496ED91FC91159720E030E065E02E
:101030000994DB011496ED91FC91159766E00994F3
:10104000AF92BF92CF92DF92EF92FF920F931F93D6
:10105000CF93DF931F92CDB7DEB75C018B017A018E
:1010600080E0F7014491811109C04F3FD9F1B801E7
:10107000C5010E94100881112EC039C04F3FB9F33D
:101080004E3FB9F1403F38F5403E30F04F70B80167
:10109000C5010E9407081FC0403D30F04F70B801E5
:1010A000C5010E94EA0717C0403CB8F0B801C5016D
:1010B00049830E94F30749814295407F4E5FC42EC9
:1010C000D12CC6010E947209B801C5010E94FD071A
:1010D000C6010E94720980E006C047FDFCCF842F44
:1010E00090E0F7CF81E0FFEFEF1AFF0ABACF80E080
:1010F00001C081E00F90DF91CF911F910F91FF9080
:10110000EF90DF90CF90BF90AF900895860F911D24
:10111000FC0183A18F3F19F0642F0C94B30E089546
:10112000EF92FF920F931F93CF93DF937C01C0E068
:10113000D0E087010C0F1D1FF80183A18F3F41F004
:1011400061E00E947A0E61E0F80183A10E94B30E73
:101150002196CD30D10569F7DF91CF911F910F9185
:10116000FF90EF90089590E0FC01E052F74F24913A
:1011700030E0220F331F2250374FF901259134916F
:10118000309334032093330370E0FB01E052F74FB8
:10119000249130E0220F331F2250374FF90125915F
:1011A00034913093300320932F03FC01E453F74F25
:1011B000849180933203FB01E453F74F6491609371
:1011C00031036095609335038095809336030895CD
:1011D00050913203609136034091310330913503D1
:1011E000A0913303B0913403E0912F03F0913003C9
:1011F00098E02C9187FF02C0252B01C026232C9359
:101200002081242B2083880F208123232083915049
:1012100081F70895CF92DF92EF92FF920F931F9381
:10122000CF93DF931F92CDB7DEB76C017901062F04
:1012300010E0F8013197E730F10508F048C0EC5CA8
:10124000FF4F0C9455110E94900840E064E0C601E5
:101250000E94860840E065E011C0FC0183A18F3F39
:10126000B1F160E031C0411103C041E062E02CC047
:1012700040E064E00E94860840E062E0C6010E940F
:101280008608F60167A180A50E94B30820C0842FBC
:101290000E94E8081CC04423D1F0F70181917F012E
:1012A00049830E94E80849814150F5CF442379F0F1
:1012B000F701849149830E94E808FFEFEF1AFF0AC3
:1012C00049814150F3CF61E0C6010E94860881E068
:1012D0000F90DF91CF911F910F91FF90EF90DF90D2
:1012E000CF9008952EE93FE0009729F0F90131975A
:1012F000F1F70197F9CF0895BF92CF92DF92EF9265
:10130000FF920F931F93CF93DF938C01EB01B42EC9
:10131000690180E14817B1F1841770F0EAE04E13DB
:101320003CC042E0C8010E94E10742E958E0BE012A
:10133000C8010E94200831C0F1E14F1731F185E169
:1013400048132BC0EA80FB804AE858E0C8010E949D
:101350002008F7014481406BBE01C8010E941008BB
:1013600041E0BE01C8010E940708AE01B801C701F3
:101370000E940A0D882301F140E0BE01C8010E94CD
:10138000EA070BC041E858E002C046E758E0BE015A
:10139000C8010E94200881E010C096014B2DBE01BB
:1013A000C801DF91CF911F910F91FF90EF90DF90D7
:1013B000CF90BF900C94820D80E0DF91CF911F9170
:1013C0000F91FF90EF90DF90CF90BF900895FC01B8
:1013D000E60FF11D849190E0982F88273196E491D3
:1013E0008E0F911D0895FC01849108950E94F309C8
:1013F000882311F0823011F486E0089583E0089587
:1014000080E0089566E00C94E70968E00C94E70931
:101410000A96FC01849108950B96FC01849108952D
:10142000BF92CF92DF92EF92FF920F931F93CF93D1
:10143000DF93EC01E62E0C811D81C8010E94F309A7
:10144000F82E8C819D810E94F609B82E21E0F216BB
:1014500019F0CC24CA9402C05FE0C52E8C819D8116
:101460000E94080AF82E8C819D810E940C0AD82EB9
:101470008C819D810E94050AE0E6EE1538F4009704
:1014800029F0080F191F41E6F42E10C08C819D81B0
:101490000E94020AF0E4FE1538F4009729F0080FC4
:1014A000191F31E4F32E02C00F5E1F4FDE1440F40B
:1014B000188A1B8A1C8A198A1A8A80E090E050C018
:1014C000DF14B0F32B2D30E0F80184918F3F19F435
:1014D0000F5F1F4F40C0FE1036C08C819D810E945F
:1014E000F30998012F5F3F4FF801882311F08230F4
:1014F00091F484918B8BF90124912C8BF801339614
:10150000E491E88BF8013496E491E98BF801359683
:10151000E491EA8B16C09491892F8F7082508A8B48
:1015200092959F70998BF9012491822F8F708C8BEB
:1015300022952F702B8BF8013296E491E295EF7093
:10154000E88BC8010DC0F8013296E491EC210E0F32
:10155000111D020F131FFD1409F4AACFF394B4CF89
:10156000DF91CF911F910F91FF90EF90DF90CF907F
:10157000BF9008954F925F927F928F929F92AF9209
:10158000BF92CF92DF92EF92FF920F931F93CF9370
:10159000DF931F92CDB7DEB72C01162F742E622F6A
:1015A0000E94100A6C01009709F43EC0F201848188
:1015B00095810E94F609F82EF201838804899188AA
:1015C000910E8289781A172D101B282D412F692D15
:1015D000C2010E94BF07882321F1CF0CD11CF7E084
:1015E0008F0E869486948694A82CB12C1715C9F07A
:1015F000392D76018E2D8C19881578F4F701049118
:1016000020E0412F632FC20139830E94940CFFEF29
:10161000EF1AFF0A3981385FEDCFCA0CDB1C1F5F60
:10162000E5CFF201808901C080E00F90DF91CF917A
:101630001F910F91FF90EF90DF90CF90BF90AF90F0
:101640009F908F907F905F904F9008950F931F937E
:10165000CF93DF9300D01F92CDB7DEB78C01DC01B2
:101660005596ED91FC9156972B834A836983099592
:101670004A81480F2B816981C8010F900F900F900C
:10168000DF91CF911F910F910C94BA0A20E03AE0BC
:10169000FC01368B258B08951F93CF93DF93EC01CC
:1016A0001D821C821F821E82198681E0888782E249
:1016B0008A871F861E8680E090E02FEFFE01E80FEC
:1016C000F91F23A301968E309105C1F711E018A3ED
:1016D000CE010E94460B1F8B188E198E80E48A8FD4
:1016E0001B8E8BEC9DE09AAB89ABDF91CF911F9164
:1016F0000895DB01ED91FC910994EF92FF921F9305
:10170000CF93DF9300D0CDB7DEB77C01DC01D1965B
:10171000ED91FC91D29782E069837A83099520E06C
:1017200030E04AE069817A81C7010E94790B182F65
:10173000D701D196ED91FC91D29783E00995D7011D
:10174000D196ED91FC91D29780E00995812F0F9071
:101750000F90DF91CF911F91FF90EF9008950F931D
:101760001F93CF93DF93EC018B01E9A9FAA982E0E3
:101770000995E9A9FAA981E0099520E030E044E162
:10178000B801CE010E94790B9E012D5C3F4F47E1CD
:10179000B801CE010E94790BE9A9FAA980E0DF9196
:1017A000CF911F910F910994FF920F931F93CF93A5
:1017B000DF93EC018B01E9A9FAA982E00995E9A977
:1017C000FAA981E0099520E030E045E1B801CE01B9
:1017D0000E94790BF82E882341F09E012D5C3F4F2B
:1017E00047E1B801CE010E94790BE9A9FAA980E08E
:1017F00009958F2DDF91CF911F910F91FF90089543
:10180000CF93DF931F92CDB7DEB79E012F5F3F4F7F
:1018100046E40E94790B89810F90DF91CF91089562
:10182000CF93DF931F92CDB7DEB79E012F5F3F4F5F
:1018300047E40E94790B89810F90DF91CF91089541
:1018400020E030E048E40C94790BCF93DF93EC0177
:101850006A817B810E94000C88836A817B81CE0132
:101860000E94100C89836A817B81CE010E94200C2A
:101870008B879E012D5C3F4F6A817B8147E1CE01C2
:10188000DF91CF910C94790BCF93DF93EC016A81B8
:101890007B810E947D0B882329F0CE010E94250CBC
:1018A00081E001C080E0DF91CF9108958F929F92F7
:1018B000AF92BF92CF92EF920F93CF93DF9300D06E
:1018C000CDB7DEB74C015B012A8349830E944C0BE4
:1018D000F401B382A282498147A32A8120A705A3EC
:1018E000E4A2C3A2C4010F900F90DF91CF910F919A
:1018F000EF90CF90BF90AF909F908F900C94440C3E
:10190000FC01628173810C94AF0BCF93DF93EC01E8
:10191000EE85FF85309709F009956A817B81CE01BC
:10192000DF91CF910C94D40B0F93FC0182819381B2
:10193000648F458F278F068F9F01245E3F4F4BE3B7
:10194000BC01CF010F910C94790BFC0160A30895A9
:10195000FC01128280818150838314820895FC01EE
:1019600020818281820F82839181891760F4848132
:101970008F5F84838381820F891710F08FEF890F27
:10198000838381E0089580E00895DC011696ED914F
:10199000FC91179715968C919F01280F311DC90155
:1019A0001192E817F907E1F70895FC0191E08381AE
:1019B000861708F490E021E0461708F020E0322F67
:1019C000392B81E05281451708F480E0832392236C
:1019D000892B0895DC01FB01108212968C911297DD
:1019E000818315968C9115978150828313968C91E3
:1019F00083830895FB0141812381213029F0233025
:101A000031F468EF640F04C0642F485F01C0642F95
:101A10000C94D50CFC01CB01BA012681378145819C
:101A20000C941908DC011696ED91FC91179712960B
:101A30008C91481B477081E090E0042E01C0880F14
:101A40000A94EAF7E60FF11D3081222311F0832B6F
:101A500002C08095832380830895FB014181DC01CE
:101A600012962C911297421768F013962C911397A7
:101A7000241740F0608115962C91621718F4248188
:101A80000C94120D0895CF92DF92FF920F931F9343
:101A9000CF93DF9300D0CDB7DEB78C016B01FB0194
:101AA000F2808381813039F070F0823039F08330F8
:101AB00041F020E001C021E030E007C020E03FEF2E
:101AC00004C02FEFF9CF20E031E0F7FE08C0B601E7
:101AD000C80129833A830E942D0D3A812981F6019C
:101AE0008081830F80838181820F8183FF0C69F75E
:101AF0000F900F90DF91CF911F910F91FF90DF908A
:101B0000CF9008950F931F93CF93DF938901FB012B
:101B1000C281D3814233F9F068F4453109F147318C
:101B200041F1443181F5CE010E94C50CCE010E94E5
:101B3000A80C29C0463411F1473411F14B3319F583
:101B4000B901CE010E94FA0C8823E9F0B801CE0158
:101B50000E94430D18C0B901CE010E942D0D13C083
:101B6000CE010E94AF0C882381F0CE010E94C50CEB
:101B70000AC0B901CE010E94EA0C05C08D8101C0E6
:101B80008981F801808381E001C080E0DF91CF91FD
:101B90001F910F91089508951F920F920FB60F9203
:101BA00011242F933F938F939F93AF93BF93809173
:101BB0008A0290918B02A0918C02B0918D0230919B
:101BC000890223E0230F2D3720F40196A11DB11DBA
:101BD00005C026E8230F0296A11DB11D209389029E
:101BE00080938A0290938B02A0938C02B0938D0213
:101BF00080918E0290918F02A0919002B0919102FB
:101C00000196A11DB11D80938E0290938F02A09327
:101C10009002B0939102BF91AF919F918F913F91AC
:101C20002F910F900FBE0F901F901895789484B548
:101C3000826084BD84B5816084BD85B5826085BDC8
:101C400085B5816085BDEEE6F0E0808181608083AE
:101C5000E1E8F0E010828081826080838081816091
:101C60008083E0E8F0E0808181608083E1EBF0E058
:101C7000808184608083E0EBF0E0808181608083FC
:101C8000EAE7F0E0808184608083808182608083E5
:101C90008081816080838081806880831092C10010
:101CA0000895833081F028F4813099F08230A1F0DA
:101CB00008958730A9F08830B9F08430D1F480914C
:101CC00080008F7D03C0809180008F77809380009B
:101CD000089584B58F7702C084B58F7D84BD089543
:101CE0008091B0008F7703C08091B0008F7D80938A
:101CF000B0000895CF93DF9390E0FC01E453F74FD9
:101D00002491FC01E052F74F8491882349F190E03F
:101D1000880F991FFC01E85FF64FA591B49182509E
:101D2000974FFC01C591D4919FB7611108C0F894F9
:101D30008C91209582238C93888182230AC0623003
:101D400051F4F8948C91322F309583238C938881B1
:101D5000822B888304C0F8948C91822B8C939FBF34
:101D6000DF91CF9108950F931F93CF93DF931F922D
:101D7000CDB7DEB7282F30E0F901E854F74F849152
:101D8000F901E453F74F1491F901E052F74F049130
:101D90000023C9F0882321F069830E94510E6981D4
:101DA000E02FF0E0EE0FFF1FE250F74FA591B49146
:101DB0009FB7F8948C91611103C01095812301C0E5
:101DC000812B8C939FBF0F90DF91CF911F910F912B
:101DD0000895FC01818D228D90E0805C9F4F821BD5
:101DE00091098F7399270895FC01918D828D981721
:101DF00031F0828DE80FF11D858D90E008958FEF11
:101E00009FEF0895FC01918D828D981761F0828D6E
:101E1000DF01A80FB11D5D968C91928D9F5F9F731E
:101E2000928F90E008958FEF9FEF089584E290E104
:101E3000892B49F080E090E0892B29F00E94241042
:101E400081110C9400000895FC01848DDF01A80F1E
:101E5000B11DA35ABF4F2C91848D90E001968F73D2
:101E60009927848FA689B7892C93A089B1898C91F1
:101E700080648C93938D848D981306C00288F389B7
:101E8000E02D80818F7D80830895CF93DF93EC01D7
:101E9000888D8823C9F0EA89FB89808185FD05C08A
:101EA000A889B9898C9186FD0FC00FB607FCF5CFC4
:101EB000808185FFF2CFA889B9898C9185FFEDCF0C
:101EC000CE010E94240FE7CFDF91CF910895CF92EA
:101ED000DF92FF920F931F93CF93DF931F92CDB7A3
:101EE000DEB76C01DC015B969C915B975C968C91F4
:101EF0005C97981307C05096ED91FC9151978081A3
:101F000085FD32C0F601038D10E00F5F1F4F0F7388
:101F10001127F02EF601848DF81211C00FB607FCC0
:101F2000F9CFD6015096ED91FC915197808185FFB4
:101F3000F1CFC60169830E94240F6981EBCF838DA5
:101F4000E80FF11DE35AFF4F6083D6015B960C93B7
:101F50005B975296ED91FC915397808180628083CC
:101F600081E058968C930DC0D6015696ED91FC9168
:101F7000579760835096ED91FC91519780818064D2
:101F8000808381E090E00F90DF91CF911F910F91BE
:101F9000FF90DF90CF9008951F920F920FB60F928F
:101FA00011242F938F939F93EF93FF93E091A202BD
:101FB000F091A3028081E091A802F091A90282FD34
:101FC00012C090818091AB028F5F8F732091AC0221
:101FD000821751F0E091AB02F0E0EE56FD4F958F85
:101FE0008093AB0201C08081FF91EF919F918F910F
:101FF0002F910F900FBE0F901F9018951F920F9268
:102000000FB60F9211242F933F934F935F936F93CB
:102010007F938F939F93AF93BF93EF93FF9382E947
:1020200092E00E94240FFF91EF91BF91AF919F9199
:102030008F917F916F915F914F913F912F910F9071
:102040000FBE0F901F90189582E992E00E94E90E52
:1020500021E0892B09F420E0822F08951092950247
:102060001092940288EE93E0A0E0B0E08093960294
:1020700090939702A0939802B093990280E491E024
:10208000909393028093920285EC90E090939F024C
:1020900080939E0284EC90E09093A1028093A00232
:1020A00080EC90E09093A3028093A20281EC90E0F8
:1020B0009093A5028093A40282EC90E09093A702F3
:1020C0008093A60286EC90E09093A9028093A802E8
:1020D0001092AB021092AC021092AD021092AE02BE
:1020E000089508950E94160E0E9471100E94010525
:1020F000C6E1DFE00E940D052097E1F30E94160F74
:10210000F9CFCF92DF92EF92FF920F931F93CF936D
:10211000DF936C017A01EB01E60EF71E00E010E0A0
:10212000CE15DF0561F06991D601ED91FC9101902A
:10213000F081E02DC6010995080F191FF1CFC801E4
:10214000DF91CF911F910F91FF90EF90DF90CF9093
:102150000895FC01808191810C94F311CF93DF935A
:10216000EC0188819981009711F00E94F311198286
:1021700018821D821C821B821A82DF91CF910895E2
:102180000F931F93CF93DF93EC018B016F5F7F4F12
:10219000888199810E948212009731F09983888307
:1021A0001B830A8381E001C080E0DF91CF911F9102
:1021B0000F910895CF93DF93EC0188819981892B4A
:1021C00029F08A819B818617970760F4CE010E94CF
:1021D000C010882341F08C819D81892B19F4E881FE
:1021E000F981108281E0DF91CF910895EF92FF9203
:1021F0000F931F93CF93DF93EC017B018A01BA0108
:102200000E94DA10811104C0CE010E94AE1007C0F6
:102210001D830C83B701888199810E945513CE01DB
:10222000DF91CF911F910F91FF90EF900895FC01E6
:102230001182108213821282158214826115710537
:1022400059F0FB0101900020E9F7AF01415051091D
:10225000461B570B0C94F6100895AA1BBB1B51E1AB
:1022600007C0AA1FBB1FA617B70710F0A61BB70B06
:10227000881F991F5A95A9F780959095BC01CD01AB
:10228000089597FB072E16F4009407D077FD09D028
:102290000E942D1107FC05D03EF4909581959F4F2B
:1022A0000895709561957F4F0895EE0FFF1F05907B
:1022B000F491E02D0994CF93DF938230910510F4CF
:1022C00082E090E0E0913903F0913A0320E030E0C1
:1022D000A0E0B0E0309739F14081518148175907AB
:1022E000B8F04817590771F482819381109729F04B
:1022F00013969C938E9312972CC090933A038093DD
:10230000390327C02115310531F04217530718F062
:10231000A901DB0101C0EF019A01BD01DF010280CB
:10232000F381E02DD7CF21153105F9F0281B390BAA
:102330002430310580F48A819B816115710521F07B
:10234000FB019383828304C090933A038093390303
:10235000FE01329644C0FE01E20FF31F8193919378
:1023600022503109398328833AC0209137033091B4
:102370003803232B41F42091020130910301309363
:10238000380320933703209100013091010121157A
:10239000310541F42DB73EB740910401509105013C
:1023A000241B350BE0913703F0913803E217F30754
:1023B000A0F42E1B3F0B2817390778F0AC014E5FB5
:1023C0005F4F2417350748F04E0F5F1F50933803B7
:1023D000409337038193919302C0E0E0F0E0CF0196
:1023E000DF91CF910895CF93DF93009709F487C0D1
:1023F000FC01329713821282C0913903D0913A03C3
:10240000209781F420813181280F391F8091370373
:10241000909138038217930779F5F0933803E0938E
:1024200037036DC0DE0120E030E0AE17BF0750F487
:1024300012964D915C9113979D014115510509F13B
:10244000DA01F3CFB383A28340815181840F951FBA
:102450008A179B0771F48D919C911197840F951F9A
:1024600002969183808312968D919C91139793830A
:1024700082832115310529F4F0933A03E09339035F
:102480003EC0D9011396FC93EE9312974D915D9146
:10249000A40FB51FEA17FB0779F480819181840F9F
:1024A000951F0296D90111969C938E9382819381F8
:1024B00013969C938E931297E0E0F0E08A819B81C3
:1024C000009719F0FE01EC01F9CFCE0102962881A8
:1024D0003981820F931F20913703309138032817D9
:1024E000390769F4309729F410923A0310923903AE
:1024F00002C013821282D0933803C0933703DF9156
:10250000CF910895A0E0B0E0E8E8F2E10C94601308
:10251000EC01CB01209719F40E945B11B8C0FE01B9
:10252000E60FF71F9E0122503109E217F30708F466
:10253000ACC0D9010D911C91119706171707B8F07F
:102540000530110508F49FC0A801445051094617F1
:10255000570708F498C002501109061B170B019386
:1025600011936D937C93CF010E94F3118CC05B019A
:10257000A01AB10A4E01800E911EA0913903B091AC
:102580003A03612C712C60E070E0109709F449C0A7
:10259000A815B905C9F5ED90FC901197670142E0C7
:1025A000C40ED11CCA14DB0478F147018A189B08B9
:1025B000640142E0C40ED11C1296BC90129713968F
:1025C000AC91B5E0CB16D10440F0B282A3839182E6
:1025D0008082D9018D939C9309C00E5F1F4F0E0D11
:1025E0001F1DF90111830083EB2DFA2F6115710571
:1025F00031F0DB011396FC93EE93129744C0F093F5
:102600003A03E09339033FC06D917C9111976616B0
:10261000770608F43B01BD0112960D90BC91A02DE8
:10262000B4CF609137037091380368157905E9F4E8
:1026300068167906D0F440910001509101014115CE
:10264000510541F44DB75EB76091040170910501E9
:10265000461B570BE417F507C0F4F0933803E093DB
:102660003703F901918380830EC00E945B117C01C6
:10267000009759F0A801BE010E944C13CE010E94A0
:10268000F311C70104C0CE0102C080E090E0CDB7D5
:10269000DEB7EEE00C947C13FB01DC0102C001907C
:1026A0000D9241505040D8F70895FB01DC01019094
:1026B0000D920020E1F708952F923F924F925F9282
:1026C0006F927F928F929F92AF92BF92CF92DF9242
:1026D000EF92FF920F931F93CF93DF93CDB7DEB7A7
:1026E000CA1BDB0B0FB6F894DEBF0FBECDBF09943B
:1026F0002A88398848885F846E847D848C849B8492
:10270000AA84B984C884DF80EE80FD800C811B819F
:10271000AA81B981CE0FD11D0FB6F894DEBF0FBECE
:10272000CDBFED01089519E0C8E1D9E004C0FE0174
:102730000E9457112296CC31D107C9F7F894FFCFE8
:1027400000003B0380007C090C010A0908400000DE
:102750000080090200000000B804811000000000A1
:10276000B80481104750524D43002C000000000077
:102770009F0581100B067E05F10523060000000071
:0C278000670F8110E90E020FF40E450FE8
:00000001FF
